{
  "contractName": "FirstContract",
  "abi": [
    {
      "constant": true,
      "inputs": [],
      "name": "getValue",
      "outputs": [
        {
          "internalType": "uint256",
          "name": "",
          "type": "uint256"
        }
      ],
      "payable": false,
      "stateMutability": "view",
      "type": "function"
    },
    {
      "constant": false,
      "inputs": [
        {
          "internalType": "uint256",
          "name": "_value",
          "type": "uint256"
        }
      ],
      "name": "setValue",
      "outputs": [],
      "payable": false,
      "stateMutability": "nonpayable",
      "type": "function"
    },
    {
      "constant": true,
      "inputs": [],
      "name": "getMsgSender",
      "outputs": [
        {
          "internalType": "address",
          "name": "",
          "type": "address"
        }
      ],
      "payable": false,
      "stateMutability": "view",
      "type": "function"
    }
  ],
  "bytecode": "0x608060405234801561001057600080fd5b5061018f806100206000396000f3fe608060405234801561001057600080fd5b50600436106100415760003560e01c8063209652551461004657806355241077146100645780637a6ce2e114610092575b600080fd5b61004e6100dc565b6040518082815260200191505060405180910390f35b6100906004803603602081101561007a57600080fd5b81019080803590602001909291905050506100e5565b005b61009a610130565b604051808273ffffffffffffffffffffffffffffffffffffffff1673ffffffffffffffffffffffffffffffffffffffff16815260200191505060405180910390f35b60008054905090565b33600160006101000a81548173ffffffffffffffffffffffffffffffffffffffff021916908373ffffffffffffffffffffffffffffffffffffffff1602179055508060008190555050565b6000600160009054906101000a900473ffffffffffffffffffffffffffffffffffffffff1690509056fea265627a7a72315820ea770f34255d72ae19ebe6d36b62a54850a9602e70b039c54b29b65dc7cb7f2364736f6c63430005100032",
  "source": "pragma solidity ^0.5.11;\n\ncontract FirstContract {\n    uint value;\n    address sender; \n    \n    function getValue() external view returns(uint) { \n        return value;\n    }\n    \n    function setValue(uint _value) external {\n        sender = msg.sender;\n        value = _value;\n    }\n    \n    function getMsgSender() external view returns(address) { \n        return sender;\n    }\n    \n    \n}",
  "sourcePath": "/Users/AdnanAhmad/Data/Development/PetProjects/LearningSolidity/SolidityPythonTutorial/contracts/FirstContract.sol",
  "compiler": {
    "name": "solc",
    "version": "0.5.16+commit.9c3226ce.Emscripten.clang"
  },
  "schemaVersion": "3.4.0",
  "updatedAt": "2021-06-09T09:44:08.372Z",
  "networkType": "ethereum",
  "devdoc": {
    "methods": {}
  },
  "userdoc": {
    "methods": {}
  }
}